:020000040000FA
:1000000000260020A1020000A9020000AB020000AF
:10001000AD020000AF020000B102000000000000CD
:10002000000000000000000000000000B30200001B
:10003000B502000000000000B7020000B902000095
:10004000BB02000085040000510A0000BB02000052
:10005000BB020000BB020000BB020000B5050000AF
:100060001108000059080000BB020000BB0200009C
:10007000BB020000BB020000BB020000BB0200008C
:10008000BB020000BB020000BB020000BB0200007C
:10009000BB020000BB020000BB020000BB0200006C
:1000A000BB020000BB020000BB020000BB0200005C
:1000B000BB020000BB0200000000000000000000C6
:1000C000BB020000BB020000BB020000BB0200003C
:1000D000BB020000BB020000BB02000000000000E9
:1000E0000000000000000000000000000000000010
:1000F0000000000000000000000000000000000000
:1001000000000000000000000000000000000000EF
:1001100000000000000000000000000000000000DF
:1001200000000000000000000000000000000000CF
:1001300000000000000000000000000000000000BF
:1001400000000000000000000000000000000000AF
:10015000000000000000000000000000000000009F
:10016000000000000000000000000000000000008F
:10017000000000000000000000000000000000007F
:10018000000000000000000000000000000000006F
:10019000000000000000000000000000000000005F
:1001A000000000000000000000000000000000004F
:1001B000000000000000000000000000000000003F
:1001C000000000000000000000000000000000002F
:1001D000000000000000000000000000000000001F
:1001E000000000000000000000000000000000000F
:1001F00000000000000000000000000000000000FF
:1002000000F002F800F03CF80AA090E8000C8244EC
:100210008344AAF10107DA4501D100F031F8AFF2C9
:10022000090EBAE80F0013F0010F18BFFB1A43F0D4
:10023000010318474C1800006C180000103A24BF46
:1002400078C878C1FAD8520724BF30C830C144BF3B
:1002500004680C607047000000230024002500267D
:10026000103A28BF78C1FBD8520728BF30C148BF19
:100270000B6070471FB501F0FEFB1FBD10B510BD30
:1002800000F07AF81146FFF7F5FF00F049FC00F0A6
:1002900098F803B4FFF7F2FF03BC00F09FF80000EA
:1002A0000948804709480047FEE7FEE7FEE7FEE70A
:1002B000FEE7FEE7FEE7FEE7FEE7FEE70448054946
:1002C000054A064B704700003D0600000102000091
:1002D0000006002000260020001600200016002046
:1002E0004FF000020429C0F0128010F0030C00F05F
:1002F0001E80CCF1040CBCF1020F18BF00F8012BDA
:10030000A8BF20F8022BA1EB0C0100F010B85FEAA7
:10031000C17C24BF00F8012B00F8012B48BF00F876
:10032000012B70477047704770474FF0000200B5CF
:10033000134694469646203922BFA0E80C50A0E808
:100340000C50B1F12001BFF4F7AF090728BFA0E8B6
:100350000C5048BF0CC05DF804EB890028BF40F882
:10036000042B08BF704748BF20F8022B11F0804FC4
:1003700018BF00F8012B7047754600F02BF8AE4609
:1003800005006946534620F00700854618B020B5A1
:10039000FFF794FFBDE820404FF000064FF0000744
:1003A0004FF000084FF0000B21F00701AC46ACE81D
:1003B000C009ACE8C009ACE8C009ACE8C0098D468A
:1003C000704710B50446AFF300802046BDE81040EA
:1003D000FFF75FBF00487047A005002001491820C3
:1003E000ABBEFEE726000200704700000548B0F8EB
:1003F000C8000449B1F8CA10884201D100207047F2
:100400000120FCE7E60000200348B0F8C8000249DC
:10041000A1F8CA0070470000E6000020002005494E
:10042000086001208107086000BF024800680028BA
:10043000FBD07047000100407CB5112415250BE06E
:1004400026460020009003460122114601903046C6
:1004500001F098FA00BF641CAC42F1D900BF0D2432
:100460000325002000902B460246014601902046BD
:1004700001F088FA00BF7CBD0148B0F8C8007047A1
:10048000E60000201148006800F01000E0B11048BC
:100490000068C8B10F48007810B100200D490870FD
:1004A0000D48007868B100200B4908700748FC30FF
:1004B0000068012802D10949087002E002200749BA
:1004C00008700020024908607047000004130040D3
:1004D0001011004052000020530000205400002062
:1004E0000020094908600949C1F81001012008618C
:1004F00000BF0548F03800680028FAD00020024903
:10050000F039086070470000001200400010004001
:1005100070B505460C46FFF7E3FF0120034908606C
:100520000348046001200349486070BD0012004088
:10053000081500400010004070B506460C461546F0
:10054000FFF7CEFF01200649086006480660001D3F
:1005500004600448001F056001200349086070BD65
:10056000001200400C1500400010004001461048E9
:10057000B0F8CA000E4AB2F8C820904201D101205A
:1005800070470B48B0F8CA20B0F8CA00401C084BAE
:10059000A3F8CA001846805C08701846B0F8CA0074
:1005A000C82803D100201A46A2F8CA000020E7E7B5
:1005B000E600002010B5012001F03EFAD0B14FF462
:1005C000807001F029FAA8B14FF4807001F02EFA82
:1005D0001248007838B1002010490870C82110482E
:1005E00001F012FA06E001200C490870C8210D48FC
:1005F00001F00AFA022001F01FFA70B14FF4827084
:1006000001F00AFA48B14FF4827001F00FFA00BF0E
:100610000120054A106000BF00BF10BD5600002039
:100620007E0200200E0400200070004001480249B4
:10063000086070470090D0035800002010B501F00A
:100640001BF828B165480088C0F30420644908609D
:1006500001F06EF810B163486349486701F0A8F8EB
:1006600030B15E48E0380068C0F342305F4908604E
:1006700001F0CCF828B15E48006820F080705C4939
:10068000086001F0E3F848B100205A4908604FF0D3
:100690008041C1F810015549091F086001F004F9B3
:1006A00018B1032051496431086001F01DF968B1A7
:1006B00005205149086001204F4978310860002029
:1006C0004D49083108603F20091F086001F02CF9EE
:1006D000002855D04148E0300068484908603F484C
:1006E000E4300068091D08603C48E8300068091DD6
:1006F00008603A48EC300068091D08603748F0305F
:100700000068091D08603548F4300068091D08605C
:100710003248F83000683949203108602F48FC30F1
:100720000068091D086036480068091D08603448E3
:10073000001D0068091D0860314808300068091D67
:1007400008602F480C300068091D08602C481030E4
:1007500000682A4940310860294814300068091DA2
:100760000860274818300068091D086024481C30BC
:100770000068091D0860224820300068091D0860D3
:1007800000F04CFF30B11548CC38006800F04F0045
:100790001C49086000F09EFF40B11B48006800F053
:1007A000010018B16FF001001749086000F0E0FF88
:1007B00028B11648006840F48060144908600C486D
:1007C0007438006840F47000094974390860BFF358
:1007D0004F8FBFF36F8FFFF729FF10BD2403001069
:1007E000403501400DF0ADBA00C007403C05004067
:1007F000FCED00E00C0100401056004020C5004018
:1008000024040010E40E0040000400403C170040A7
:1008100010B54FF4A0700D490968014009B10121DC
:1008200000E0002181B10A484FF4A07142580AB19A
:10083000012200E000223AB14FF4A071044801F017
:1008400007F901200349087010BD0000048300402F
:10085000008000404B00002010B51248007840B1E5
:10086000114802781148017811480078FFF764FEBA
:1008700005E00D4801780D480078FFF749FE0A4869
:100880000078401C08490870084600780949097832
:10089000884203DD084800780349087000200749B2
:1008A000086010BD51000020500000204C000020C6
:1008B0004D0000204F0000204E00002040910040DD
:1008C00010B504461848B0F8C810B0F8C800401C6D
:1008D000154AA2F8C80010464454B0F8C800C82809
:1008E00003D100201146A1F8C80010480078C8B90B
:1008F00001200E4908700C48B0F8CA20B0F8CA00B0
:10090000401C094BA3F8CA001846815C084801F056
:10091000AFF80548B0F8CA00C82803D10020024942
:10092000A1F8CA0010BD0000B2010020550000204F
:10093000002000407CB506240020009003460122E0
:1009400011460190204601F02FF800BF062001213A
:100950008140374A116000BF082400250020009024
:100960002B46024601460190204601F01DF800BFCB
:1009700030483149086000BF0020014640EA0102CA
:100980002E4BC3F86C2500BF062008211A46C2F87A
:100990000C05C2F8141500BF4FF48E71104601F01B
:1009A00061F84FF48471254801F05CF884202449F3
:1009B000086000BF02200121002804DB4A07130E53
:1009C000204A135406E04A07140E1F4A00F00F0392
:1009D0001B1FD45400BF0220002807DB00F01F02B9
:1009E00001219140194A430942F8231000BF022017
:1009F00000280DDB00BF00BF00F01F020121914065
:100A00004209920002F1E022C2F8001100BF00BFCB
:100A100000BF00BF042008492439086000BF00213E
:100A2000064801F022F80821044801F01EF87CBDB8
:100A30000805005000E0D7012425004000200040B8
:100A40000423004000E400E018ED00E080E200E054
:100A500010B504202C490968014009B1012100E0CA
:100A6000002109B34FF48471284800F0F4FFD8B195
:100A70004FF48471254800F0F5FF00BF244800685A
:100A8000C0B22449B1F8C820B1F8C810491C214BA4
:100A9000A3F8C810194688540846B0F8C800C828FA
:100AA00002D10020A1F8C8004FF48E71174800F061
:100AB000D2FF18B34FF48E71144800F0D3FF1648DC
:100AC000B0F8C8001449B1F8CA10884217D01248CB
:100AD000B0F8CA20B0F8CA00401C0F4BA3F8CA00F7
:100AE0001846815C094800F0C3FF0B48B0F8CA0003
:100AF000C82807D100200849A1F8CA0002E0002058
:100B00000649087010BD000004230040002000408A
:100B100018250040E6000020B2010020550000200A
:100B2000FFF77CFCFFF706FFFFF786FC62B6FDE3EC
:100B3000FE48007820B1012856D002287ED136E048
:100B4000FFF754FCA8B10121112000F049FF012159
:100B5000122000F045FF0121132000F041FF012188
:100B6000142000F03DFF0020F14908800220EF49E9
:100B700008700D2000F02AFF70B9EE48007858B9CF
:100B8000002404E0EC49085DFFF79AFE641C072C82
:100B9000F8DB0120E7490870E648007830B10D2005
:100BA00000F014FF10B10020E2490870F8E3FFF7ED
:100BB00063FCDF49098888420CD1E04800684CF6A4
:100BC0002031884206D10120D84908700020DB4935
:100BD000086008E0D9480068401CD8490860FFF761
:100BE0004BFCD3490880E1E7002404E0D44908190C
:100BF000FFF7BCFC641C092CF8DBD248FFF7B6FCFD
:100C0000D04800782B286FD1012408E0CD4908197D
:100C1000FFF7ACFC0021142000F0E2FE641C062C5F
:100C2000F4DBC84800782B2877D1C64840784428A0
:100C3000FAD1C44880784128F6D100E0FEE3C148EB
:100C4000C0785428F0D1BF4800794428ECD1BD4881
:100C500040792028E8D1002404E0BB490819FFF7B7
:100C600085FC641C1C2CF8DB04E0B8480068401CC0
:100C7000B6490860B448B5490968405C2028F4D1F9
:100C800004E0B3480068401CB1490860AF48006800
:100C9000401CAF4909680844AB49085C2028F0D1E2
:100CA00004E0AC480068401CAA490860A7480068F6
:100CB000401CA74909680844401CA6490968084423
:100CC000A149085C0D28ECD1002004E09E49095C94
:100CD000A14A1154401C9D490968491C8842F5DB12
:100CE0009A490968481C09E0B8E397490A5C9749A2
:100CF0000968491C411A994B5A54401C9349096888
:100D0000491C934A126811448142EEDC8F490968FC
:100D10008F4A12681144881C0CE0FDE38A490A5C82
:100D20008A4909688A4B1B681944891C411A8C4BF3
:100D30005A54401C85490968854A12681144891C27
:100D4000844A126811448142E8DC834800782D28E7
:100D50007ED17E48006808283AD17F4840783038F4
:100D6000804948437C498978303940F2712211FB2F
:100D700002F100EB01117848C078303800EB4002F6
:100D8000C2EBC01001EBC00173484079303800EB72
:100D9000C00202EB001001EB80016F48807930380F
:100DA00000EB800001EB40016B48C079303808440B
:100DB000404200EE100AB8EEC00A6B4880ED000A0F
:100DC00090ED000ADFED690A80EE201A80ED001A2E
:100DD0005E480068072833D15F484078303842F2D7
:100DE000107110FB01F15C488078303800EB400254
:100DF000C2EBC01001EBC00157480079303800EB5E
:100E0000C00202EB001001EB8001534840793038FA
:100E100000EB800001EB40014F48807930380844F6
:100E2000404200EE100AB8EEC00A4F4880ED000ABA
:100E300090ED000ADFED4D0A80EE201A80ED001AD9
:100E40004248006806282CD143484078303800E0FA
:100E500028E04FF47A7110FB01F13F48C078303838
:100E600000EBC00202EB001001EB80013A48007970
:100E7000303800EB800001EB4001374840793038D2
:100E80000844404200EE100AB8EEC00A364880ED31
:100E9000000A90ED000ADFED350A80EE201A80EDA1
:100EA000001AC5E029480068072839D12A48007887
:100EB00030382C49484328494978303940F271226A
:100EC00011FB02F100EB011123488078303800EB70
:100ED0004002C2EBC01001EBC0011F48007930385E
:100EE00000EBC00202EB001001EB80011A484079D0
:100EF000303800EB800001EB400117488079303832
:100F0000084400EE100AB8EEC00A174880ED000A47
:100F100090ED000ADFED150A80EE201A80ED001A30
:100F20000A480068062855D10B4821E04A000020F5
:100F300048000020400000201E0000204400002047
:100F4000C000002000000020C90000203400002064
:100F5000380000203C000020060000200E00002089
:100F600016000020A08601002800002000007A441E
:100F70000078303842F2107110FB01F1FE484078E1
:100F8000303800EB4002C2EBC01001EBC001FA4860
:100F9000C078303800EBC00202EB001001EB80019A
:100FA000F5480079303800EB800001EB4001F24851
:100FB00040793038084400EE100AB8EEC00AEF4815
:100FC00080ED000A90ED000A5FED180A80EE201A0D
:100FD00080ED001AEA480068052829D1E648007823
:100FE00030384FF47A7110FB01F1E34880783038E3
:100FF00000EBC00202EB001001EB8001DE48C0787C
:10100000303800EB800001EB4001DB4800793038DC
:10101000084400EE100AB8EEC00AD84880ED000A75
:1010200090ED000A5FED2F0A80EE201A80ED001A85
:10103000D44800782D287DD1D348006808283AD1BB
:10104000D04840783038D1494843CE498978303942
:1010500040F2712211FB02F100EB0111C948C07886
:10106000303800EB4002C2EBC01001EBC001C548B4
:101070004079303800EBC00202EB001001EB800138
:10108000C0488079303800EB800001EB4001BD485A
:10109000C07930380844404200EE100AB8EEC00A69
:1010A000BB4880ED000A90ED000A5FED500A80EE2B
:1010B000201A80ED001AB4480068072833D1B148DF
:1010C0004078303842F2107110FB01F1AD48807861
:1010D000303800EB4002C2EBC01001EBC001A94860
:1010E0000079303800EBC00202EB001001EB800108
:1010F000A4484079303800EB800001EB4001A14862
:10110000807930380844404200EE100AB8EEC00A38
:101110009F4880ED000A90ED000A5FED6C0A80EEBA
:10112000201A80ED001A9848006806282CD19548AE
:10113000407800E029E030384FF47A7110FB01F17B
:101140009048C078303800EBC00202EB001001EB91
:1011500080018C480079303800EB800001EB4001C1
:101160008848407930380844404200EE100AB8EE12
:10117000C00A874880ED000A90ED000A5FED850AFD
:1011800080EE201A80ED001AA2E07F480068072850
:1011900039D17C48007830387C49484379494978CE
:1011A000303940F2712211FB02F100EB0111754858
:1011B0008078303800EB4002C2EBC01001EBC00178
:1011C00070480079303800EBC00202EB001001EBF0
:1011D00080016C484079303800EB800001EB400121
:1011E000684880793038084400EE100AB8EEC00A2A
:1011F000674880ED000A90ED000A5FEDA40A80EEDA
:10120000201A80ED001A60480068062832D15D4837
:101210000078303842F2107110FB01F159484078E3
:10122000303800EB4002C2EBC01001EBC001554862
:10123000C078303800EBC00202EB001001EB8001F7
:1012400050480079303800EB800001EB40014D48F8
:1012500040793038084400EE100AB8EEC00A4C4815
:1012600080ED000A90ED000A5FEDC00A80EE201AC2
:1012700080ED001A44480068052829D141480078CB
:1012800030384FF47A7110FB01F13E4880783038E5
:1012900000EBC00202EB001001EB80013948C0787E
:1012A000303800EB800001EB4001364800793038DF
:1012B000084400EE100AB8EEC00A354880ED000A76
:1012C00090ED000A5FEDD70A80EE201A80ED001A3B
:1012D000304800782D287DD12F48006808283CD15F
:1012E0002C4840783038294948432A498978303990
:1012F00040F2712211FB02F100EB01112548C07888
:10130000303800EB4002C2EBC01001EBC0012148B5
:101310004079303800EBC00202EB001001EB800195
:101320001C488079303800EB800000E05EE101EB82
:1013300040011848C07930380844404200EE100A95
:10134000B8EEC00A154880ED000A90ED000A5FED86
:10135000F90A80EE201A80ED001A0F48006807286D
:101360004BD10C484078303842F2107110FB01F13B
:1013700008488078303814E006000020280000205B
:10138000340000200E00002038000020A08601005C
:101390002C000020160000203C000020300000201F
:1013A00023E100EB4002C2EBC01001EBC00190480A
:1013B0000079303800EBC00202EB001001EB800135
:1013C0008B484079303800EB800001EB40018848C1
:1013D000807900E043E030380844404200EE100AD3
:1013E000B8EEC00A834880ED000A90ED000ADFEDF8
:1013F000820A80EE201A80ED001A804800680628D4
:101400002CD17B48407830384FF47A7110FB01F1D1
:101410007748C078303800EBC00202EB001001EBD7
:10142000800173480079303800EB800001EB400107
:101430006F48407930380844404200E0D1E000EE87
:10144000100AB8EEC00A6B4880ED000A90ED000A61
:10145000DFED690A80EE201A80ED001AA7E06748E8
:101460000068072839D16248007830386449484319
:101470005F494978303940F2712211FB02F100EBEB
:1014800001115B488078303800EB4002C2EBC0109D
:1014900001EBC00156480079303800EBC00202EB86
:1014A000001001EB800152484079303800EB800099
:1014B00001EB40014E4880793038084400EE100AB4
:1014C000B8EEC00A4B4880ED000A90ED000ADFED4F
:1014D0004A0A80EE201A80ED001A48480068062863
:1014E00034D143480078303842F2107110FB01F1DA
:1014F0003F484078303800EB4002C2EBC01001EBAF
:10150000C0013B48C078303800EBC00202EB00104D
:1015100001EB8001364800E047E00079303800EB0D
:10152000800001EB4001324840793038084400EE39
:10153000100AB8EEC00A2F4880ED000A90ED000AAC
:10154000DFED2D0A80EE201A80ED001A2B4800688E
:1015500005282CD12648007830384FF47A7110FBDA
:1015600001F123488078303800EBC00202EB001014
:1015700001EB80011E48C078303800EB800001EBA1
:1015800040011B4800793038084400EE100AB8EEDC
:10159000C00A184880ED000A90ED000ADFED160A37
:1015A00080EE201A80ED001A01E0FEF72DFFFEF715
:1015B0002BFF0020134908801349087013480021AD
:1015C000016081801C211248FEF78AFE114800212B
:1015D0000160416010480160416005480160416060
:1015E00003E000200849087000BF00BFFFF7A0BA61
:1015F000160000203000002000007A443C0000204B
:10160000A0860100480000204A00002000000020C1
:10161000C9000020060000200E00002014480068C9
:10162000401C38B913480178124808300078C0F3DC
:10163000031205E00E4801684FF08050D0F83421C5
:10164000062912D1032A06D0042A06D0052A06D07C
:10165000062A08D105E0012070470120FCE701209F
:10166000FAE70120F8E70120F6E70020F4E70000A0
:1016700030010010E00F00F014480068401C38B939
:1016800013480178124808300078C0F3031205E0CF
:101690000E4801684FF08050D0F83421062912D14D
:1016A000032A06D0042A06D0052A06D0062A08D125
:1016B00005E0012070470120FCE70120FAE7012046
:1016C000F8E70120F6E70020F4E700003001001001
:1016D000E00F00F014480068401C38B91348017846
:1016E000124808300078C0F3031205E00E48016884
:1016F0004FF08050D0F83421062912D1032A06D0A9
:10170000042A06D0052A06D0062A08D105E00120C1
:1017100070470120FCE70120FAE70120F8E70120EB
:10172000F6E70020F4E7000030010010E00F00F0C1
:101730000E4802780D4808300078C0F30311062ADD
:1017400012D1032906D0042906D0052906D006297E
:1017500008D105E0012070470020FCE70020FAE7EF
:101760000020F8E70020F6E70020F4E7E00F00F0A3
:101770000E4802684FF08050D0F83411062A12D17A
:10178000032906D0042906D0052906D0062908D148
:1017900005E0002070470020FCE70020FAE7012068
:1017A000F8E70120F6E70020F4E700003001001020
:1017B00014480068401C38B91348017812480830B2
:1017C0000078C0F3031205E00E4801684FF0805026
:1017D000D0F83421062912D1032A06D0042A06D0D3
:1017E000052A06D0062A08D105E00120704701200D
:1017F000FCE70120FAE70120F8E70120F6E70020E6
:10180000F4E7000030010010E00F00F00E4802780D
:101810000D4808300078C0F30311062A12D10329BD
:1018200006D0042906D0052906D0062908D105E0EE
:10183000012070470020FCE70020FAE70020F8E7CD
:101840000020F6E70020F4E7E00F00F014480068FD
:10185000401C38B913480178124808300078C0F3AA
:10186000031205E00E4801684FF08050D0F8342193
:10187000062912D1032A06D0042A06D0052A06D04A
:10188000062A08D105E0012070470120FCE701206D
:10189000FAE70120F8E70120F6E70020F4E700006E
:1018A00030010010E00F00F00E4802780D480830BB
:1018B0000078C0F30311062A12D1032906D00429A7
:1018C00006D0052906D0062908D105E00120704779
:1018D0000020FCE70020FAE70020F8E70020F6E708
:1018E0000020F4E7E00F00F00E4802780D480830C1
:1018F0000078C0F30311062A12D1032906D0042967
:1019000006D0052906D0062908D105E00120704738
:101910000020FCE70020FAE70020F8E70020F6E7C7
:101920000020F4E7E00F00F014480068401C38B9CC
:1019300013480178124808300078C0F3031205E01C
:101940000E4801684FF08050D0F83421062912D19A
:10195000032A06D0042A06D0052A06D0062A08D172
:1019600005E0002070470020FCE70120FAE7012095
:10197000F8E70120F6E70020F4E70000300100104E
:10198000E00F00F0F0B5DDE9054541EA420646EA20
:10199000830646EA042646EA0547024E46F82070CA
:1019A000F0BD000000070050F0B5DDE9054541EA53
:1019B000420646EA830646EA042646EA0547024E00
:1019C00046F82070F0BD00000007005001460348B3
:1019D0000068C84000F0010070470000100500508A
:1019E00031B900BF01228240064B1A6000BF07E0F8
:1019F00000BF01228240034B1B1F1A6000BF00BFC3
:101A0000704700000C050050024A1060121D116062
:101A1000704700002C76004001460348085808B182
:101A2000012070470020FCE7007000400021014ABF
:101A3000815070470070004001460448006808402B
:101A400008B1012070470020FCE70000047300404B
:101A50000022425070470246505808B1012070479A
:101A60000020FCE70022425070470122425070479C
:101A7000C0F81C1570474FF04070E1EE100A704737
:101A8000A01A0000000000205C0000003C020000E2
:101A9000FC1A00005C000020A42500005802000091
:101AA0000000000000000000000000000000000036
:101AB00000000000000000000000000000003F44A3
:101AC0004154440D0A000000000000000000000026
:101AD0000000000000000000000000000000000006
:101AE00000000000000000000000000000000000F6
:0C1AF00000000000000000000090D00387
:0400000500000201F4
:00000001FF
